:1000000038282034203456344734413420342034C6
:100010002034203474346534733474342034203400
:100020007034693463347434753472346534203414
:1000300020342034673465346E342E342034203438
:100040002034203462347934203420342034203475
:10005000533474346534663461346E34203420345F
:10006000573461346934673461346E346434203415
:10007000831607308800E0308500831285118E21B9
:100080000000051285118E21452885118E21000062
:10009000051685118E214C2885118E214F2885113A
:1000A0008E21522885118E21552885118E215828A0
:1000B00085118E215B2885118E215E2885118E2168
:1000C000612885118E21642885118E21672885116C
:1000D0008E216A2885118E216D2885118E21702828
:1000E00085118E21732885118E21762885118E2108
:1000F000792885118E217C2885118E217F288511F4
:100100008E21822885118E21852885118E218828AF
:1001100085118E218B2885118E218E2885118E21A7
:10012000912885118E21942885118E21972885117B
:100130008E219A2885118E219D2885118E21A02837
:1001400085118E21A32885118E21A62885118E2147
:10015000A92885117B21AC2885117B21AF28851129
:100160007B21B22885117B21B52885117B21B828F8
:1001700085117B21BB2885117B21BE2885117B2120
:10018000C12885117B21C42885117B21C7288511B1
:100190007B213C2185117B213C2185117B213C2148
:1001A00085117B213C2185117B213C2185117B21FF
:1001B0003C2185117B213C2185117B213C2185112E
:1001C0007B213C2185117B213C2185117B213C2118
:1001D00085117B213C2185117B213C2185117B21CF
:1001E0003C2185117B213C2185117B213C218511FE
:1001F0007B213C2185117B213C2185117B213C21E8
:1002000085117B213C2185117B213C2185117B219E
:10021000092985117B210C2985117B210F29851145
:100220007B21122985117B21152985117B21182914
:1002300085117B211B2985117B211E2985118E218A
:10024000212985118E21242985118E2127298511A7
:100250008E212A2985118E212D2985118E21302963
:1002600085118E21332985118E21362985118E2104
:10027000392985118E213E2885117B213F29851141
:100280007B21422985117B21452985117B21482924
:1002900085117B214B2985117B214E2985117B21DD
:1002A000512985117B21542985117B2157298511DD
:1002B0007B215A2985117B215D2985117B216029AC
:1002C00085117B21632985117B21662985117B217D
:1002D000692985117B216C2985117B216F29851165
:1002E0007B21722985117B21752985117B21782934
:1002F00085117B21080085150508073885008029B0
:100300008503822985038429850386298503882915
:1003100085038A2985038C29850308008515902982
:1003200091299229932994299529962997299829E1
:0803300099299A299B29080074
:02400E00F93F78
:00000001FF
